:100000000C945D000C9485000C9485000C94850084
:100010000C9485000C9485000C9485000C9485004C
:100020000C9485000C9485000C9485000C945F035F
:100030000C9485000C9485000C9485000C9485002C
:100040000C94BD020C9485000C942D030C940703B2
:100050000C9485000C9485000C9485000C9485000C
:100060000C9485000C9485000000000024002700FB
:100070002A0000000000250028002B0004040404CE
:100080000404040402020202020203030303030342
:10009000010204081020408001020408102001021F
:1000A00004081020000000080002010000030407FB
:1000B00000000000000000001B0411241FBECFEF51
:1000C000D8E0DEBFCDBF11E0A0E0B1E0E0E1FCE0B0
:1000D00002C005900D92AC35B107D9F722E0ACE52E
:1000E000B1E001C01D92AB32B207E1F710E0CDE5FF
:1000F000D0E004C02197FE010E940006CC35D10754
:10010000C9F70E9478040C9406060C9400008F92A4
:100110009F92AF92BF92FF920F931F93CF93DF9363
:10012000F09028022BE02F1508F44CC020912A02F1
:1001300008E512E0021B110927FD1395000F111F9E
:10014000000F111F20912902C8E8D0E0C21BD1097D
:1001500027FDD395CC0FDD1FCC0FDD1F4E010D2EDB
:10016000000CAA08BB089801012E000C440B550B8B
:10017000281939094A095B09DC010E94BB0524EBF7
:1001800030E040E050E00E949105820E931EA41ED4
:10019000B51E8C169D062CF0E801801691060CF415
:1001A000E4012297CC0FDD1F2FB7F8948F2D90E03C
:1001B000FC01EE0FFF1FE80FF91FED5FFD4FD2832B
:1001C000C1832FBFDF91CF911F910F91FF90BF90FF
:1001D000AF909F908F90089590E0FC01EC55FF4FF9
:1001E0002491FC01E057FF4F3491FC01E458FF4F8C
:1001F000E491EE23C9F0222339F0233001F1A8F471
:10020000213019F1223029F1F0E0EE0FFF1FEE58F6
:10021000FF4FA591B4918FB7F894EC91611126C06E
:1002200030953E233C938FBF08952730A9F02830A6
:10023000C9F0243049F7809180008F7D03C0809100
:1002400080008F7780938000DFCF84B58F7784BD67
:10025000DBCF84B58F7DFBCF8091B0008F7780930B
:10026000B000D2CF8091B0008F7DF9CF3E2BDACF96
:100270003FB7F8948091620190916301A09164016D
:10028000B091650126B5A89B05C02F3F19F00196D6
:10029000A11DB11D3FBFBA2FA92F982F8827BC01E0
:1002A000CD01620F711D811D911D42E0660F771F08
:1002B000881F991F4A95D1F708958F929F92AF9208
:1002C000BF92CF92DF92EF92FF920E9438014B01D2
:1002D0005C0188EEC82E83E0D82EE12CF12C0E9420
:1002E0003801681979098A099B09683E73408105BC
:1002F0009105A8F321E0C21AD108E108F10888EEBF
:10030000880E83E0981EA11CB11CC114D104E10425
:10031000F10429F7FF90EF90DF90CF90BF90AF905E
:100320009F908F900895AF92BF92CF92DF92EF92FD
:10033000FF920F931F93CF93DF936C017B018B018F
:10034000040F151FEB015E01AE18BF08C017D107DF
:1003500059F06991D601ED91FC910190F081E02D69
:10036000C6010995892B79F7C501DF91CF911F91BE
:100370000F91FF90EF90DF90CF90BF90AF900895D6
:10038000FC01538D448D252F30E0842F90E0821B9B
:10039000930B541710F0CF96089501970895FC0120
:1003A000918D828D981761F0A28DAE0FBF2FB11D78
:1003B0005D968C91928D9F5F9F73928F90E00895D0
:1003C0008FEF9FEF0895FC01918D828D981731F08A
:1003D000828DE80FF11D858D90E008958FEF9FEFDE
:1003E0000895FC01918D228D892F90E0805C9F4FB4
:1003F000821B91098F739927089586E691E00E94E8
:10040000F10121E0892B09F420E0822F089580E09A
:1004100090E0892B29F00E94FD0181110C940000CD
:100420000895FC01A48DA80FB92FB11DA35ABF4F89
:100430002C91848D90E001968F739927848FA689E3
:10044000B7892C93A089B1898C91837080648C9337
:10045000938D848D981306C00288F389E02D8081E6
:100460008F7D80830895EF92FF920F931F93CF9318
:10047000DF93EC0181E0888F9B8D8C8D98131AC0DF
:10048000E889F989808185FF15C09FB7F894EE89C6
:10049000FF896083E889F989808183708064808323
:1004A0009FBF81E090E0DF91CF911F910F91FF906E
:1004B000EF900895F62E0B8D10E00F5F1F4F0F7316
:1004C0001127E02E8C8D8E110CC00FB607FCFACFD1
:1004D000E889F989808185FFF5CFCE010E9411025C
:1004E000F1CFEB8DEC0FFD2FF11DE35AFF4FF082A2
:1004F0009FB7F8940B8FEA89FB8980818062CFCF08
:10050000CF93DF93EC01888D8823B9F0AA89BB894A
:10051000E889F9898C9185FD03C0808186FD0DC035
:100520000FB607FCF7CF8C9185FFF2CF808185FF56
:10053000EDCFCE010E941102E9CFDF91CF91089556
:10054000CF93DF93FC0101900020E9F73197AF01D1
:10055000481B590BBC0186E691E00E949301EC0117
:1005600042E050E062E171E086E691E00E94930192
:100570008C0F9D1FDF91CF9108951F920F920FB6A0
:100580000F9211242F933F938F939F93AF93BF9319
:1005900080915E0190915F01A0916001B091610135
:1005A00030915D0123E0230F2D3758F50196A11DF1
:1005B000B11D20935D0180935E0190935F01A09334
:1005C0006001B09361018091620190916301A091FB
:1005D0006401B09165010196A11DB11D8093620176
:1005E00090936301A0936401B0936501BF91AF91B3
:1005F0009F918F913F912F910F900FBE0F901F9061
:10060000189526E8230F0296A11DB11DD2CF1F9287
:100610000F920FB60F9211242F933F934F935F9336
:100620006F937F938F939F93AF93BF93EF93FF93BA
:1006300086E691E00E941102FF91EF91BF91AF9188
:100640009F918F917F916F915F914F913F912F91EA
:100650000F900FBE0F901F9018951F920F920FB61C
:100660000F9211242F938F939F93EF93FF93E09119
:100670007601F09177018081E0917C01F0917D011C
:1006800082FD1BC0908180917F018F5F8F732091CD
:100690008001821741F0E0917F01F0E0EA59FE4FBE
:1006A000958F80937F01FF91EF919F918F912F9173
:1006B0000F900FBE0F901F9018958081F4CF1F925E
:1006C0000F920FB60F9211242F933F934F935F9386
:1006D0006F937F938F939F93AF93BF93CF93DF934A
:1006E000EF93FF9380915C01C0912702D0E087FFD8
:1006F00024C0109285001092840080915C018F5F6D
:1007000080935C0180915C01082E000C990B8C1782
:100710009D0724F480915C018C30C4F180918400A9
:1007200090918500049680349C4908F47AC08091A9
:10073000840090918500049676C080915C01082E1B
:10074000000C990B8C179D07C4F6E0915C018E2F6D
:10075000EE0F990BFC01EE0FFF1FE80FF91FED5F85
:10076000FD4F808186FFC9CFE0915C018E2FEE0F97
:10077000990BFC01EE0FFF1FE80FF91FED5FFD4F16
:10078000808160E08F730E94EC00B7CF20918400DD
:1007900030918500E0915C018E2FEE0F990BFC01EA
:1007A000EE0FFF1FE80FF91FED5FFD4F8181928172
:1007B000820F931F9093890080938800E0915C01E1
:1007C0008E2FEE0F990BFC01EE0FFF1FE80FF91FA4
:1007D000ED5FFD4F808186FF11C0E0915C018E2F9F
:1007E000EE0F990BFC01EE0FFF1FE80FF91FED5FF5
:1007F000FD4F808161E08F730E94EC00FF91EF91CB
:10080000DF91CF91BF91AF919F918F917F916F9128
:100810005F914F913F912F910F900FBE0F901F90BE
:10082000189580E49CE990938900809388008FEF6D
:1008300080935C01E3CF109269011092680188EE09
:1008400093E0A0E0B0E080936A0190936B01A093E5
:100850006C01B0936D0184E091E090936701809307
:10086000660185EC90E0909373018093720184ECB3
:1008700090E0909375018093740180EC90E09093E8
:1008800077018093760181EC90E0909379018093D9
:10089000780182EC90E090937B0180937A0186EC62
:1008A00090E090937D0180937C0110927F011092E3
:1008B00080011092810110928201809127028C3078
:1008C00098F491E0980F909327028093280290E08B
:1008D000FC01EE0FFF1FE80FF91FED5FFD4F88EBE6
:1008E0009BE09283818308958FEF8093280208957F
:1008F000789484B5826084BD84B5816084BD85B5FB
:10090000826085BD85B5816085BD80916E00816006
:1009100080936E00109281008091810082608093AC
:1009200081008091810081608093810080918000AE
:100930008160809380008091B10084608093B100D9
:100940008091B00081608093B00080917A008460D3
:1009500080937A0080917A00826080937A008091FF
:100960007A00816080937A0080917A008068809319
:100970007A001092C100E0917601F091770182E057
:100980008083E0917201F09173011082E091740113
:10099000F09175018FEC808310927E01E0917A01D5
:1009A000F0917B0186E08083E0917801F0917901FC
:1009B000808180618083E0917801F091790180816C
:1009C00088608083E0917801F0917901808180686E
:1009D0008083E0917801F091790180818F7D80831F
:1009E000809128028C3008F068C0E9E9F0E0249199
:1009F000E5E8F0E08491882399F090E0880F991F52
:100A0000FC01E859FF4FA591B491FC01EE58FF4F4E
:100A1000859194918FB7F894EC91E22BEC938FBF72
:100A200080912802282F30E0F901EE0FFF1FE20F1E
:100A3000F31FED5FFD4F9081907C99609083109241
:100A4000290210922A022CE0622F0E94F405829F54
:100A5000B001112430E020E0AB01420F531FFA0136
:100A6000EE0FFF1FE40FF51FED5FFD4F908196FD28
:100A700016C02F5F3F4F2C30310571F781110FC029
:100A80001092800082E08093810010928500109285
:100A90008400B19A80916F00826080936F00E09132
:100AA00028028E2F90E0FC01EE0FFF1FE80FF91FC8
:100AB000ED5FFD4F80818064808385E191E00E943D
:100AC000A00290E080E00E9487000E945D01C0E0EB
:100AD000D0E086E691E00E94F10118161906C4F4F0
:100AE00086E691E00E94CF01863491F489E391E09B
:100AF0000E94A0028AE590E00E9487000E945D01AA
:100B000090E080E00E9487008CE491E00E94A002C7
:100B10002097F9F20E94FD018823D9F20E9400007B
:100B2000D8CF052E97FB1EF400940E94A80557FD10
:100B300007D00E94C30507FC03D04EF40C94A8050F
:100B400050954095309521953F4F4F4F5F4F0895F9
:100B500090958095709561957F4F8F4F9F4F089529
:100B60000E94E505A59F900DB49F900DA49F800D58
:100B7000911D11240895B7FF0C94B0050E94B00593
:100B8000821B930B0895A1E21A2EAA1BBB1BFD0129
:100B90000DC0AA1FBB1FEE1FFF1FA217B307E4075C
:100BA000F50720F0A21BB30BE40BF50B661F771FB4
:100BB000881F991F1A9469F7609570958095909594
:100BC0009B01AC01BD01CF010895A29FB001B39F6D
:100BD000C001A39F700D811D1124911DB29F700D46
:100BE000811D1124911D0895991B79E004C0991F5E
:100BF000961708F0961B881F7A95C9F78095089577
:100C0000EE0FFF1F0590F491E02D0994F894FFCFAB
:100C10000000000033029301C0018002F101CF0106
:100C2000E3010D0A004665656465722052656164E2
:100C3000792E2053656E64696E6720746573742025
:100C400070756C73652E2E2E0044697370656E731B
:100C5000696E6720466F6F642E2E2E0046656564B0
:0C0C600020436F6D706C6574652E000001
:00000001FF
